:100000000C945E000C9486000C9486000C94860080
:100010000C9486000C9486000C9486000C94E402E8
:100020000C9486000C9486000C9486000C94860038
:100030000C9486000C9486000C9486000C94860028
:100040000C94BE030C9486000C948C030C946603F1
:100050000C9486000C9486000C9486000C94860008
:100060000C9486000C9486000000000024002700F9
:100070002A0000000008000201000003040700003D
:10008000000000000000010204081020408001026E
:1000900004081020010204081020000000002500C0
:1000A00028002B00040404040404040402020202D5
:1000B00002020303030303030200080411241FBE0A
:1000C000CFEFD8E0DEBFCDBF11E0A0E0B1E0E2EEBF
:1000D000FEE002C005900D92A435B107D9F722E0E9
:1000E000A4E5B1E001C01D92A332B207E1F710E030
:1000F000CEE5D0E004C02197FE010E946907CD350E
:10010000D107C9F70E9427050C946F070C940000D3
:10011000AF92BF92CF92DF92EF92FF920F931F9315
:10012000CF93DF936C017B018B01040F151FEB0153
:100130005E01AE18BF08C017D10759F06991D6010A
:10014000ED91FC910190F081E02DC6010995892B7C
:1001500079F7C501DF91CF911F910F91FF90EF903B
:10016000DF90CF90BF90AF900895FC01538D448DE8
:10017000252F30E0842F90E0821B930B541710F052
:10018000CF96089501970895FC01918D828D98175F
:1001900061F0A28DAE0FBF2FB11D5D968C91928D37
:1001A0009F5F9F73928F90E008958FEF9FEF089568
:1001B000FC01918D828D981731F0828DE80FF11D31
:1001C000858D90E008958FEF9FEF0895FC01918D4C
:1001D000228D892F90E0805C9F4F821B91098F7345
:1001E000992708958EE691E00E94E60021E0892B90
:1001F00009F420E0822F089580E090E0892B29F017
:100200000E94F20081110C9400000895FC01A48D5D
:10021000A80FB92FB11DA35ABF4F2C91848D90E028
:1002200001968F739927848FA689B7892C93A0890B
:10023000B1898C91837080648C93938D848D981395
:1002400006C00288F389E02D80818F7D8083089528
:10025000EF92FF920F931F93CF93DF93EC0181E016
:10026000888F9B8D8C8D98131AC0E889F9898081BD
:1002700085FF15C09FB7F894EE89FF896083E889F0
:10028000F98980818370806480839FBF81E090E0E2
:10029000DF91CF911F910F91FF90EF900895F62E6F
:1002A0000B8D10E00F5F1F4F0F731127E02E8C8D09
:1002B0008E110CC00FB607FCFACFE889F98980814E
:1002C00085FFF5CFCE010E940601F1CFEB8DEC0F3B
:1002D000FD2FF11DE35AFF4FF0829FB7F8940B8F6B
:1002E000EA89FB8980818062CFCFCF93DF93EC01D5
:1002F000888D8823B9F0AA89BB89E889F9898C910E
:1003000085FD03C0808186FD0DC00FB607FCF7CFC9
:100310008C9185FFF2CF808185FFEDCFCE010E94C9
:100320000601E9CFDF91CF91089590E0FC01EE58EE
:10033000FF4F2491FC01EA57FF4F3491FC01EC552B
:10034000FF4FE491EE23C9F0222339F0233001F16D
:10035000A8F4213019F1223029F1F0E0EE0FFF1F4F
:10036000E656FF4FA591B4918FB7F894EC916111C7
:1003700026C030953E233C938FBF08952730A9F0C7
:100380002830C9F0243049F7809180008F7D03C068
:10039000809180008F7780938000DFCF84B58F7746
:1003A00084BDDBCF84B58F7DFBCF8091B0008F778C
:1003B0008093B000D2CF8091B0008F7DF9CF3E2BDB
:1003C000DACFCF93DF9390E0FC01EA57FF4F2491FF
:1003D0008C559F4FFC0184918823D1F090E0880FC9
:1003E000991FFC01E859FF4FA591B491FC01E65615
:1003F000FF4FC591D49161110EC09FB7F8948C91B5
:10040000E22FE0958E238C932881E223E8839FBF1F
:10041000DF91CF9108958FB7F894EC91E22BEC9394
:100420008FBFF6CF3FB7F8948091590190915A0150
:10043000A0915B01B0915C0126B5A89B05C02F3F40
:1004400019F00196A11DB11D3FBFBA2FA92F982FFA
:100450008827BC01CD01620F711D811D911D42E0F5
:10046000660F771F881F991F4A95D1F70895089541
:1004700090E080E00895FC0101900020E9F73197B9
:10048000AF01481B590BBC018EE691E00C9488002B
:10049000CF93DF93EC0160E08E810E94950161E0D3
:1004A0008E810E94950160E08E810E9495018BE80B
:1004B00091E00197F1F7DF91CF910895CF92DF920C
:1004C000EF92FF920F931F93CF93DF936C017C0108
:1004D00087E0E80EF11CD0E0C0E0062F10E0B80184
:1004E0000C2E02C0759567950A94E2F76170F701CA
:1004F00081917F010E9495012196C430D10579F741
:10050000C601DF91CF911F910F91FF90EF90DF9087
:10051000CF900C944802CF92DF92EF92FF920F930C
:100520001F93CF93DF93EC01F62E642F8C810E94F2
:1005300095018D818F3F19F060E00E9495010F2D8C
:1005400010E08F8584FF25C06E0187E0C80ED11CA6
:10055000F12CE12CB8010E2C02C0759567950A9418
:10056000E2F76170F60181916F010E949501FFEF42
:10057000EF1AFF0A88E0E816F10461F7CE01DF9177
:10058000CF911F910F91FF90EF90DF90CF900C943F
:100590004802B80184E0759567958A95E1F7CE0128
:1005A0000E945E026F2DCE01DF91CF911F910F91BE
:1005B000FF90EF90DF90CF900C945E0241E00E949C
:1005C0008B0281E090E008951F920F920FB60F9278
:1005D00011242F933F934F935F936F937F938F9348
:1005E0009F93AF93BF93EF93FF938091620190919C
:1005F0006301A0916401B0916501892B8A2B8B2B3B
:10060000D1F190915D01E0915E01F0915F018081F7
:10061000892780838091620190916301A091640198
:10062000B0916501181619061A061B069CF48091F4
:10063000620190916301A0916401B09165010197FD
:10064000A109B1098093620190936301A0936401B1
:10065000B0936501FF91EF91BF91AF919F918F9101
:100660007F916F915F914F913F912F910F900FBEAE
:100670000F901F90189580910001E8EBF0E0E49155
:100680009FEF90930001E13051F030F0E23069F0DB
:1006900060E00E949501DECF10926E00F9CF90913C
:1006A0006F009D7F90936F00F3CF909170009D7FBE
:1006B0009093700091E09093B0009091B100987F7A
:1006C00094609093B1001092B300E2CF1F920F920A
:1006D0000FB60F9211242F933F934F935F936F9315
:1006E0007F938F939F93AF93BF93EF93FF938EE688
:1006F00091E00E940601FF91EF91BF91AF919F9110
:100700008F917F916F915F914F913F912F910F90BA
:100710000FBE0F901F9018951F920F920FB60F9259
:1007200011242F938F939F93EF93FF93E0917E017A
:10073000F0917F018081E0918401F091850182FD3B
:100740001BC09081809187018F5F8F7320918801FA
:10075000821741F0E0918701F0E0E259FE4F958F5A
:1007600080938701FF91EF919F918F912F910F902F
:100770000FBE0F901F9018958081F4CF1F920F929B
:100780000FB60F9211242F933F938F939F93AF93A4
:10079000BF938091550190915601A0915701B0915E
:1007A00058013091540123E0230F2D3758F501965D
:1007B000A11DB11D209354018093550190935601C2
:1007C000A0935701B09358018091590190915A011B
:1007D000A0915B01B0915C010196A11DB11D8093B8
:1007E000590190935A01A0935B01B0935C01BF91B2
:1007F000AF919F918F913F912F910F900FBE0F90CE
:100800001F90189526E8230F0296A11DB11DD2CF87
:10081000CF93DF93109271011092700188EE93E0F4
:10082000A0E0B0E08093720190937301A0937401F3
:10083000B093750185E091E090936F0180936E0114
:1008400085EC90E090937B0180937A0184EC90E0BA
:1008500090937D0180937C0180EC90E090937F01E8
:1008600080937E0181EC90E09093810180938001E0
:1008700082EC90E0909383018093820186EC90E07B
:1008800090938501809384011092870110928801D2
:100890001092890110928A0110920E0210920D029C
:1008A00087E191E090930C0280930B028CE080939F
:1008B0000F028FEF809310028BE08093110285E08E
:1008C0008093120284E08093130283E080931402E9
:1008D00082E0809315021092160210921702109275
:1008E00018021092190210921A0281E080931E02DF
:1008F00010921F0280E48093200280E18093210205
:1009000080E58093220261E08CE00E94E101809109
:1009100010028F3F19F061E00E94E10161E08091D7
:1009200011020E94E101CBE0D2E09E012B50324047
:1009300080911A0284FD0BC084E090E02196281774
:10094000390744F461E08E810E94E101EECF88E036
:1009500090E0F4CF8BE39DE00197F1F760E08091A8
:100960000F020E94950160E0809111020E949501A2
:10097000809110028F3F19F060E00E949501609114
:100980001A0264FD45C063E08BE092E00E945E02C3
:10099000CBE4D6E4CE010197F1F763E08BE092E07F
:1009A0000E945E022197F1F763E08BE092E00E94E3
:1009B0005E0283E592E00197F1F762E08BE092E05E
:1009C0000E945E0260911A02606240E08BE092E059
:1009D0000E948B0284E080931B0240E06CE08BE07D
:1009E00092E00E948B0240E061E08BE092E00E9486
:1009F0008B028BE39FE10197F1F782E080931C0269
:100A000040E066E08BE092E0DF91CF910C948B02A6
:100A1000606240E08BE092E00E948B028BE496E4FF
:100A20000197F1F760911A02606240E08BE092E07A
:100A30000E948B0283E592E00197F1F760911A0220
:100A4000606240E08BE092E00E948B02BBCFCF93CC
:100A5000DF93CDB7DEB7A1970FB6F894DEBF0FBE18
:100A6000CDBF789484B5826084BD84B5816084BD37
:100A700085B5826085BD85B5816085BD80916E003C
:100A8000816080936E00109281008091810082606D
:100A900080938100809181008160809381008091AA
:100AA00080008160809380008091B1008460809399
:100AB000B1008091B00081608093B00080917A0095
:100AC000846080937A0080917A00826080937A00BB
:100AD00080917A00816080937A0080917A008068AA
:100AE00080937A001092C10061E088E00E94E101E9
:100AF00061E089E00E94E10160E08EE00E94E10196
:100B0000E0917E01F0917F0182E08083E0917A01A3
:100B1000F0917B011082E0917C01F0917D018FECDE
:100B2000808310928601E0918201F091830186E03A
:100B30008083E0918001F0918101808180618083D8
:100B4000E0918001F0918101808188608083E09153
:100B50008001F0918101808180688083E091800133
:100B6000F091810180818F7D80834DEA242E40E0C9
:100B7000342E50E9852E99249394A12CB12C20E495
:100B800020937C0080917A00806480937A00809129
:100B90007A0086FDFCCF8091780000917900102FBB
:100BA000082F8FE191E00E943B026801012E000CAA
:100BB000EE08FF0817FF62C06DE28EE691E00E942A
:100BC000280122273327A9012C193D094E095F0965
:100BD00019A2CE0181967C01CA01B9012AE030E058
:100BE00040E050E00E944707605DF70162937F019B
:100BF000211531054105510579F7E114F10419F08A
:100C0000C7010E943B028CE291E00E943B020B3F35
:100C100011050CF42BC181E391E00E943B0281E4B9
:100C200091E00E943B0280910001893009F03EC0B2
:100C3000E8EBF0E0149117FDDBC061E089E00E9471
:100C4000E101112309F4A4C0123009F0B5C080916C
:100C5000B100887F83608093B10089EF8093B300F7
:100C60008092620190926301A0926401B09265014A
:100C700080917000826080937000BAC0A7019601D5
:100C800019A2CE0181967C01CA01B9012AE030E0A7
:100C900040E050E00E944707605DF70162937F01EA
:100CA000211531054105510579F7A7CF8F3F09F08F
:100CB0009FC089E080930001E8EBF0E014911F3FB2
:100CC00009F496C0113021F150F0123009F43EC001
:100CD00017FD8EC061E089E00E94E101B5CF14BC30
:100CE00015BC84B5826084BD85B5816085BDF10188
:100CF0008491E82FF0E0EE0FFF1FE656FF4F85913D
:100D00009491EFE8F0E084918093610110E095CF39
:100D10001092800010928100809181008860809301
:100D2000810080918100816080938100F101849134
:100D3000E82FF0E0EE0FFF1FE656FF4F85919491EC
:100D4000EFE8F0E084918093600177CF1092B000DB
:100D50001092B1008091B00082608093B0008091C9
:100D6000B10081608093B100F1018491E82FF0E03F
:100D7000EE0FFF1FE656FF4F8591949190935F0110
:100D800080935E01EFE8F0E0849180935D0155CFA0
:100D900085B5887F836085BD8CE787BD80926A01B9
:100DA00090926B01A0926C01B0926D0180916E00E7
:100DB000826080936E001CC0113009F04FC080919A
:100DC0008100887F8160809381008FE39FE1909311
:100DD0008900809388008092660190926701A092BA
:100DE0006801B092690180916F00826080936F000A
:100DF00061E088E00E9495010E9412026B017C0173
:100E000084EF482E55245394612C712C0E941202B9
:100E10006C197D098E099F09683E73408105910513
:100E2000A8F391E0491A510861087108E8EECE0E66
:100E3000E3E0DE1EE11CF11C411451046104710465
:100E400029F780E090E0892B09F499CE0E94F20006
:100E5000882309F494CE0E94000091CE123021F034
:100E60001111C6CF8FE399CF8FE3F8CE60E089E010
:100E70000E94950160E088E00E94950184E491E081
:100E80000E943B0281E491E00E943B02B5CFA1E2C7
:100E90001A2EAA1BBB1BFD010DC0AA1FBB1FEE1FF4
:100EA000FF1FA217B307E407F50720F0A21BB30B3F
:100EB000E40BF50B661F771F881F991F1A9469F7BB
:100EC00060957095809590959B01AC01BD01CF0117
:100ED0000895EE0FFF1F0590F491E02D0994F8940A
:020EE000FFCF42
:100EE200FF0000000028018800B5007501E600C47B
:100EF20000D80000000000DE0288003802370241FC
:100F02006972205175616C6974793A002070706D54
:100F12000020204151204C6576656C2048494748A5
:100F2200000D0A0020204151204C6576656C204757
:040F32006F6F640079
:00000001FF
